:020000040800F2
:1000000098090020290200088D240008CF1C000850
:100010008B240008AF0400087F2B000800000000BC
:100020000000000000000000000000009124000813
:1000300047050008000000008F24000893240008F2
:10004000430200084302000843020008430200087C
:100050004302000843020008490500084302000863
:10006000430200084302000843020008430200085C
:100070004302000843020008B1040008BD04000860
:10008000C9040008D5040008430200084302000820
:10009000430200084302000843020008430200082C
:1000A000430200084302000843020008430200081C
:1000B000430200084302000843020008430200080C
:1000C00043020008430200084302000843020008FC
:1000D00043020008430200084302000843020008EC
:1000E00043020008430200084302000843020008DC
:1000F00043020008430200084302000843020008CC
:1001000000000000000000000000000043020008A2
:1001100043020008430200084302000843020008AB
:10012000430200084302000843020008430200089B
:100130004302000843020008000000000000000025
:1001400043020008430200084302000800000000C8
:10015000000000000000000000000000000000009F
:1001600000000000000000004302000843020008F5
:100170004302000800000000000000000000000032
:10018000000000004302000800F002F800F03CF814
:100190000AA090E8000C82448344AAF10107DA45E2
:1001A00001D100F031F8AFF2090EBAE80F0013F0F8
:1001B000010F18BFFB1A43F001031847C8330000B2
:1001C000E8330000103A24BF78C878C1FAD8520743
:1001D00024BF30C830C144BF04680C6070470000C1
:1001E0000023002400250026103A28BF78C1FBD840
:1001F000520728BF30C148BF0B6070471FB503F0DE
:100200009FF91FBD10B510BD00F017F91146FFF79B
:10021000F5FF02F0CFFC00F035F903B4FFF7F2FF71
:1002200003BC00F03DF90000094880470948004739
:10023000FEE7FEE7FEE7FEE7FEE7FEE7FEE7FEE796
:10024000FEE7FEE704480549054A064B70470000F3
:100250000D25000889010008980300209809002056
:10026000980500209805002053EA020C00F06980F0
:100270002DE9F04B4FF00006002B1FBFB3FA83F5BA
:1002800003FA05F424FA05F65E4012BF1643B2FAEB
:1002900082F502FA05F4C5F120051EBF22FA05FC1D
:1002A00044EA0C04203556EA044C4FEA144418BFC3
:1002B000641C4FF000084FF00009904271EB030CF2
:1002C00039D3002919BFB1FA81F701FA07F6B0FA5C
:1002D00080F700FA07F6C7F120071EBF20FA07FCD7
:1002E00046EA0C062037B6FBF4FCA7EB0507103FE7
:1002F00007F01F0BCBF120060CFA0BFB2CFA06F6CD
:1003000044BFB3460026202FA4BF5E464FF0000B2B
:100310005BEA060C08BF4FF0010B19EB0B09ABFBB6
:10032000027C48EB0608C01B06FB02CC0BFB03CC8F
:1003300071EB0C01C1E70B46024641464846BDE859
:10034000F08B13B54FF000004FF00001AFF30080C9
:10035000BDE81C40704700000FB41CB5084B06AA4E
:100360007B4469460090059800F03BF80446002065
:10037000694600F049F820461CBC5DF814FB0000FB
:10038000A50000004FF0000200B5134694469646C3
:10039000203922BFA0E80C50A0E80C50B1F1200198
:1003A000BFF4F7AF090728BFA0E80C5048BF0CC046
:1003B0005DF804EB890028BF40F8042B08BF7047A4
:1003C00048BF20F8022B11F0804F18BF00F8012B16
:1003D000704770477047704701694A1C026108788E
:1003E000704700B58FB0CDE9013100210591054975
:1003F0007944CDE903101146684600F00AF80FB0C1
:1004000000BD0000E5FFFFFF0A6802F8010B0A606B
:1004100070472DE9F04106460024D6E90170F568E1
:100420008046304603E04146B847641C3046A84742
:100430000028F8D12046BDE8F081754600F02CF880
:10044000AE4605006946534620F00700854618B0C1
:1004500020B5FFF7F7FEBDE820404FF000064FF053
:1004600000074FF000084FF0000B21F00701AC46E9
:10047000ACE8C009ACE8C009ACE8C009ACE8C00908
:100480008D46704710B50446AFF300802046BDE8A6
:100490001040FFF7C2BE000000487047380300203C
:1004A00001491820ABBEFEE7260002007047FEE7B8
:1004B000014800F05BB8000028020020014800F06D
:1004C00055B800006C020020014800F04FB8000051
:1004D000F4020020014800F049B80000B0020020FA
:1004E0000B4B01681422994207D20A4B1944B1FB05
:1004F000F2F189000164084908E0054B5B421944A8
:10050000B1FBF2F18900016401490839C163704708
:1005100008040240F8FFFDBF0000024030B590F82B
:1005200040500124AC40C56B6C6004686360436854
:10053000102B036803D099600068C26030BD9A60D8
:100540000068C16030BD7047012000F0CDB872B6C0
:10055000FEE7000010B500F009FC0349496811F4FA
:10056000E06F00D0400010BD00100240F0B4C16B3D
:100570000D6801680C68066C042202FA06F32B422F
:100580000FD063070DD50B689B0603D40B6823F0CF
:1005900004030B6090F840108A40C16B4A60C16A46
:1005A0001BE0022303FA06F72F424FF0000C4FF036
:1005B000010216D0A70714D50C68A40605D40C6850
:1005C00024F00A040C6080F8212090F840108B4041
:1005D000C16B4B6080F820C0816A002918D0F0BC44
:1005E00008470823B3402B4212D0230710D50B68CD
:1005F00023F00E030B6090F84010C36B02FA01F178
:100600005960826380F8212080F820C0016BE4E704
:10061000F0BC704770B5040021D0022084F821009E
:100620002268116843F6F0708143D4E9010318434E
:10063000D4E903352B43184363691843A36918436E
:10064000E3691843084310602046FFF749FF002084
:10065000A063012184F8211084F8200070BD0120DE
:1006600070BD70B5044690F82000002501280CD01C
:10067000012084F8200094F821600020012E06D08B
:1006800084F820000225284670BD022070BD022695
:1006900084F82160A0632068066826F001060660E1
:1006A0002046FFF73BFFE06A00282068016802D07F
:1006B00041F00E0106E041F00A0101602068016886
:1006C00021F0040101602068016841F0010101602E
:1006D000D9E70000012804D10249A1F1500001F03E
:1006E000F7BA704790000020044910B50A6802422A
:1006F00002D00860FFF7EEFF10BD000014040140B7
:100700002DE9F04FDFF8AC91002309F1040A03252D
:100710000AF1040B85B04FF0010C0F270BF1040E0A
:10072000BFE000BF0CFA03F6324075D00C7904F03C
:100730000304012C01D0022C1BD1846800945C00BE
:1007400005FA04F80494009C24EA08040094D1F803
:100750000C80049C08FA04F8009C48EA0408C0F8DD
:1007600008804468B4430E79C6F300169E402643C1
:1007700046600C79E443A4070AD0C4684FEA4308F2
:1007800005FA08F6B4438E6806FA08F62643C660F2
:100790000C7904F00304022C10D1DC0800EB840473
:1007A0000294246A5E074FEAD66807FA08F6B44353
:1007B0000E6906FA08F62643029C266204684FEA90
:1007C000430805FA08F6B4430E7906F0030606FA64
:1007D00008F6264306604C6814F4403F60D0364C5F
:1007E000A66946F00106A661A46923F0030604F099
:1007F00001040094314C34440294A4689E074FEAEB
:10080000167807FA08F6B443B0F1904F05D02C4E95
:10081000B04204D1012612E042E000260FE0294E4A
:10082000B04201D102260AE0274EB04201D1032690
:1008300005E0264EB04201D1042600E0052606FA66
:1008400008F62643029CA660D9F800604C46D1F811
:10085000048096435FEAC83800D516432660DAF86C
:1008600000405646D1F8048094435FEA883800D5AA
:1008700014433460DBF800405E46D1F804809443B2
:100880005FEAC82800D514433460DEF8004076469D
:10089000D1F8048094435FEA882800D5144334607B
:1008A0005B1C0A6832FA03F47FF43CAF05B0BDE884
:1008B000F08F0000000401400010024000000140E1
:1008C0000004004800080048000C004800100048E0
:1008D0000AB18161704781627047000001488068F9
:1008E00070470000300000200248816802781144FF
:1008F0008160704730000020074810B5016841F062
:1009000010010160032000F06FF8002000F006F8ED
:1009100000F024F8002010BD0020024070B50D4DFD
:1009200004464FF47A712878B1FBF0F00A4909685F
:10093000B1FBF0F000F04CFD48B9102C07D20022BA
:100940002146501E00F030F800206C6070BD012080
:1009500070BD0000300000203C0000200A4882B03A
:10096000816941F001018161816901F0010100911A
:10097000C16941F08051C161C06900F080500090B0
:10098000072002B000F030B800100240002809DB58
:1009900000F01F02012191404009800000F1E02099
:1009A000C0F8001170470000F0B40E4B1B680C46F5
:1009B000C3F30223C3F10705042D00D90425191D33
:1009C000072901D2002300E0DB1E012606FA05F10B
:1009D000491E214099409E40761E16403143F0BC8E
:1009E00002F0CEB80CED00E0064900F007020868FE
:1009F0004FF6FF03184040EA0220034A1043086004
:100A0000704700000CED00E00000FA052DE9F84FFA
:100A1000044600680026804DC0036ED5E869C0001A
:100A200008D4E86940F08050E861E869012600F0E8
:100A30008050009079480168C90512D40168804649
:100A400041F480710160FFF749FF074605E000BFF0
:100A5000FFF744FFC01B642835D8D8F80000C00554
:100A6000F6D5286A10F4407053D0A18801F4407183
:100A700081424ED0286A4FF4803191FAA1F2B2FA45
:100A800082F29700664A4FF00108174420F4407044
:100A9000C7F8008491FAA1F1B1FA81F102EB81016A
:100AA0000023C1F800342862C00732D0FFF716FFD8
:100AB000074641F2883A4FF0020907E0FFF70EFFC0
:100AC000C11B514502D90320BDE8F88F99FAA9F05E
:100AD000B0FA80F040F040024946B8EB521F01D115
:100AE0002A680CE091FAA1F2B2FA82F242F04002D6
:100AF000B1EB521F02D12A6A01E015E06A6A99FA45
:100B0000A9F1B1FA81F101F01F0108FA01F00242E6
:100B1000D4D0286A616820F44070084328621EB16E
:100B2000E86920F08050E8612078C00705D0286B84
:100B3000A16820F00300084328632078800705D5CA
:100B4000286BE16820F44030084328632078400790
:100B500005D5286B216920F44020084328632078BC
:100B6000800605D5286BE16920F010000843286352
:100B70002068800305D56868A16B20F480000843D5
:100B800068602078400605D5286B216A20F0200097
:100B9000084328632078000705D5286B616920F495
:100BA0004010084328632078C00605D5286BA1694A
:100BB00020F44000084328632088800505D5686834
:100BC000E16A20F40000084368602078000605D53B
:100BD000E86A616A20F4F8700843E8622088C0057A
:100BE00005D5E86AA16A20F478500843E8622088B5
:100BF000C00405D5286B216B20F48070084328635E
:100C00002088800405D5286B616B20F400700843B0
:100C10002863002058E700000010024000700040E8
:100C2000000042422DE9F0470F46050069D04A4EC8
:100C3000306800F00700B84209D2306820F00700A1
:100C400038433060306800F00700B84259D1287846
:100C5000424C800705D56068A96820F0F000084381
:100C600060602878C0073DD06968012001290DD057
:100C7000022923D05FF0020393FAA3F2B2FA82F2C0
:100C800042F02002520904D0226803E04FF40033FE
:100C9000F2E7626A93FAA3F3B3FA83F303F01F0354
:100CA000984002422DD0606820F003000843606045
:100CB000FFF714FE804641F288390CE04FF00073D4
:100CC000DAE700BFFFF70AFEA0EB0801494502D9A9
:100CD0000320BDE8F0876068696800F00C00B0EBA5
:100CE000810FEFD1306800F00700B8420BD93068AF
:100CF00020F0070038433060306800F00700B84249
:100D000001D00120E5E72878400705D56068E9684B
:100D100020F4E060084360602878000706D560682A
:100D2000296920F4605040EAC100606000F036F8A4
:100D30006168F02292FAA2F201F0F001B2FA82F2B6
:100D4000D140074A515CC84006490860064800681F
:100D5000FFF7E4FD0020BCE7002002400010024045
:100D60006A3500083C00002034000020084809498A
:100D7000006849684FF4E06292FAA2F201F4E0617F
:100D8000B2FA82F2D140044A515CC8407047000078
:100D90003C000020001002407A350008164A10B5C9
:100DA0005168164801F00C03042B20D0082B1ED1EB
:100DB0004FF4701494FAA4F401F47013B4FA84F4A8
:100DC000E3400F4CD26AE45C0F2393FAA3F302F0E2
:100DD0000F02B3FA83F3DA40094B1033C9039A5C6C
:100DE00006D500231946FFF73FFAA0FB040110BD0A
:100DF0000448A4FB000110BD0010024000127A005C
:100E00004A35000800093D002DE9F84F050071D072
:100E10002878FC4EC0074FF0010425D070686704A5
:100E2000C0F38100012807D07068C0F38100022858
:100E30001BD17068C00318D597FAA7F0B0FA80F0FC
:100E400040F02000400901D0306800E0706A97FA55
:100E5000A7F1B1FA81F101F01F0104FA01F1084292
:100E600065D068680028D2D061E06868B0F5803F3E
:100E70000BD010B1B0F5A02F17D0306820F480301F
:100E80003060306820F4802002E0306840F4803028
:100E90003060F06AA96820F00F000843F0626868CB
:100EA00020B3FFF71BFD80460AE0306840F4802045
:100EB0003060EAE7FFF712FDA0EB0800642871D864
:100EC00097FAA7F0B0FA80F040F02000400901D076
:100ED000306800E0706A97FAA7F1B1FA81F101F089
:100EE0001F0104FA01F10842E4D020E0FFF7F6FC0C
:100EF000804607E0C2E000BFFFF7F0FCA0EB08006F
:100F00006428DCD897FAA7F0B0FA80F040F020000F
:100F1000400901D0306800E0706A97FAA7F1B1FA91
:100F200081F101F01F0104FA01F10842E4D12878AF
:100F3000DFF8D48280074FF0000A4FF0020730D567
:100F400070684FF0F80B10F00C0F07D07068C0F30A
:100F50008100022827D17068C00324D497FAA7F033
:100F6000B0FA80F040F02000400901D0306800E085
:100F7000706A97FAA7F1B1FA81F101F01F0104FA42
:100F800001F1084202D02869012877D130689BFA24
:100F9000ABF220F0F8016869B2FA82F290400143A6
:100FA00031605AE064E1286988B394FAA4F0B0FA99
:100FB00080F048F82040FFF791FC814606E000BF32
:100FC000FFF78CFCA0EB090002289AD897FAA7F04B
:100FD000B0FA80F040F02000400901D0306800E015
:100FE000706A97FAA7F1B1FA81F101F01F0104FAD2
:100FF00001F10842E4D030689BFAABF26969B2FAB9
:1010000082F220F0F80091400843306025E0FFE7CD
:1010100094FAA4F0B0FA80F048F820A0FFF75EFC44
:10102000814605E0FFF75AFCA0EB09000228CCD866
:1010300097FAA7F0B0FA80F040F02000400901D004
:10104000306800E0706A97FAA7F1B1FA81F101F017
:101050001F0104FA01F10842E4D1287800076CD599
:10106000A869A8B394FAA4F0B0FA80F008EB800065
:10107000C0F88044FFF732FC814607E0A4E100BFDE
:10108000FFF72CFCA0EB090002289ED897FAA7F0E6
:10109000B0FA80F040F06000B4EB501F01D130682E
:1010A0000BE097FAA7F0B0FA80F040F06000B7EBE1
:1010B000501F01D1306A00E0706A97FAA7F1B1FAC7
:1010C00081F101F01F0104FA01F21042D8D034E09E
:1010D000FFE794FAA4F1B1FA81F108EB8101C1F8BC
:1010E00080A4FFF7FBFB814606E000BFFFF7F6FB9D
:1010F000A0EB090002289AD897FAA7F0B0FA80F07E
:1011000040F06000B4EB501F01D130680BE097FA5B
:10111000A7F0B0FA80F040F06000B7EB501F01D1AB
:10112000306A00E0706A97FAA7F1B1FA81F101F034
:101130001F0104FA01F21042D8D12878400768D57F
:10114000F0694FF00009C00009D4F06940F0805008
:10115000F061F0694FF0010900F0805000902B48D9
:101160000168C90512D4016841F480710160FFF77C
:10117000B5FB834606E000BFFFF7B0FBA0EB0B001A
:10118000642875D821480068C005F5D5E8680128AD
:101190000AD008B1052811D0306A20F00100306271
:1011A000306A20F0040002E0306A40F00100306252
:1011B000E86868B3FFF792FB83460DE0306A40F0C1
:1011C00004003062F0E700BFFFF788FBA0EB0B01E3
:1011D00041F2883081424BD897FAA7F0B0FA80F0FC
:1011E00040F04000B4EB501F01D1306813E097FA93
:1011F000A7F0B0FA80F040F04000B7EB501F09D1E3
:10120000306A08E0001002400000424200700040D6
:101210000CE040E0706A97FAA7F1B1FA81F101F0B1
:101220001F0104FA01F21042CED02DE0FFF756FB69
:10123000834607E0FFF752FBA0EB0B0141F2883039
:10124000814215D897FAA7F0B0FA80F040F040003C
:10125000B4EB501F01D130680CE097FAA7F0B0FA58
:1012600080F040F04000B7EB501F02D1306A01E03F
:1012700083E0706A97FAA7F1B1FA81F101F01F01DA
:1012800004FA01F21042D5D1B9F1000F03D0F06990
:1012900020F08050F061E86980B37168C1F381018A
:1012A000022977D04FF080714F000228504609D0B4
:1012B00091FAA1F1B1FA81F148F82100FFF70EFB94
:1012C00005465DE0894691FAA1F1B1FA81F1C24685
:1012D00048F82100FFF702FB804605E0FFF7FEFA21
:1012E000A0EB0800022848D897FAA7F0B0FA80F0DF
:1012F00040F02000400902D0306801E066E0706AEA
:1013000097FAA7F1B1FA81F101F01F0104FA01F196
:101310000842E3D1D5E908100843716821F474113B
:101320000843706099FAA9F0B0FA80F04AF82040BA
:10133000FFF7D4FA054604E0FFF7D0FA401B022875
:101340001BD897FAA7F0B0FA80F040F020004009CF
:1013500001D0306800E0706A97FAA7F1B1FA81F124
:1013600001F01F0104FA01F10842E5D02EE000BFB0
:10137000FFF7B4FA401B022802D90320BDE8F88F1A
:1013800097FAA7F0B0FA80F040F02000400902D0B0
:10139000306801E00BE0706A97FAA7F1B1FA81F1C9
:1013A00001F01F0104FA01F10842E1D10EE0012829
:1013B000E4D070682A6A00F48031914204D1696AED
:1013C00000F47010884201D00120D7E70020D5E753
:1013D00010B5401EB0F1807F01D3012010BD4FF049
:1013E000E02460610F21601701F0CAFB0020A061BA
:1013F00007202061002010BD30B590F83C20012A64
:101400003AD0012280F83C20CA688B6822F44072EE
:101410001A434B6822F480621A430B6822F400627C
:101420001A430B6922F480521A434B6922F400528A
:101430001A438B6A22F480421A430B8B22F47022E7
:1014400042EA03420D4D03680024AB4202D00C4D2A
:10145000AB420CD18D8C22F4700242EA0552CD6968
:1014600022F080722A43096A22F000720A435A6409
:1014700080F83C40002030BD022030BD002C0140EF
:1014800000340140F0B590F83C20012A36D0012408
:1014900080F83C40022280F83D200268536895683D
:1014A000174E184FB24201D0BA4204D123F4700C47
:1014B0004B6843EA0C0323F0700C0B6843EA0C03FF
:1014C00053600268B2420DD0B2F1804F0AD00E4B89
:1014D0009A4207D00D4B9A4204D0BA4202D00C4B2C
:1014E0009A4204D1896825F080031943916080F8FD
:1014F0003D40002180F83C100846F0BD0220F0BDC0
:10150000002C01400034014000040040000800406D
:101510000040014010B5040003D094F83D0010B124
:1015200007E0012010BD002084F83C00204600F0B8
:1015300023F8022084F83D00211D206800F0EEFF12
:10154000012084F8480084F83E0084F83F0084F8C5
:10155000400084F8410084F8420084F8430084F895
:10156000440084F8450084F8460084F8470084F875
:101570003D00002010BD00002DE9F04786B0064672
:1015800014216846FEF7FEFE3068B0F1804F4AD164
:101590002648C16941F00101C161C16901F0010141
:1015A0000591416941F4003141614069202700F40F
:1015B00000300097059002200025CDE901050120AB
:1015C000CDE9035069464FF09040FFF799F8194C68
:1015D00017484FF08008C4E9000504F108004FF4F3
:1015E00000794FF4006A80E82007C4E906752046B8
:1015F000FFF710F808B1FEF7AAFF746266620C48A4
:101600000D4C2830C4E9000504F1080080E82007EB
:10161000C4E906752046FEF7FDFF08B1FEF797FF07
:10162000B4623463666206B0BDE8F0870010024021
:10163000580002406C020020B00200207047704742
:1016400070472DE9F041054690F83C0000260C4615
:10165000012810D0012085F83C0072B1042A1CD06A
:10166000082A2CD00C2A50D00126002085F83C00F6
:101670003046BDE8F0810220FBE7D4E90012E368C0
:10168000286801F019FA2868816921F00C0181614C
:1016900028688169A26811430FE0D4E90012E36869
:1016A000286801F051FA2868816921F4406181615C
:1016B00028688169A26841EA02218161D5E728682A
:1016C000D4E9002C277B016A21F480710162C16991
:1016D000036A21F0030141EA0C0121F0F00C390703
:1016E0004FF420674CEA116123F4206307EA0222D9
:1016F0001A43C16102622868C16921F00C01C1610D
:101700002868C169A268114328E02868D4E9002745
:10171000E168036A23F480530362D0F81CC0036AB3
:101720002CF4407C4CEA07274FF6FF7C27F47047E7
:101730000CEA013139434FF4204723F4204307EAF0
:1017400002321A43C16102622868C16921F4406112
:10175000C1612868C169A26841EA0221C16184E7C8
:1017600010B5040003D094F83D0010B107E001204B
:1017700010BD002084F83C00204600F022F8022032
:1017800084F83D00211D206800F0C8FE012084F887
:10179000480084F83E0084F83F0084F8400084F854
:1017A000410084F8420084F8430084F8440084F83F
:1017B000450084F8460084F8470084F83D00002086
:1017C00010BD70472DE9F0411F4690460D000446BC
:1017D0004FF0000613D0042D16D0082D19D00C2D73
:1017E0001CD0102D1DD094F8430000BF94F8471072
:1017F000022819D0022917D0012818D0BFE094F888
:101800003E0094F84410F3E794F83F0094F8451034
:10181000EEE794F8400094F84610E9E794F84100A8
:10182000E4E794F84200E1E70220BDE8F0810129F5
:101830007ED1B8F1000F01D1002F79D10220E5B39C
:10184000042D41D0082D44D00C2D47D0102D48D068
:1018500084F8430084F8470001222946206800F0FC
:10186000B5FE4A484A494B4A45B3042D4FD0082D8E
:1018700063D00C2D75D001264749206888420ED0D0
:10188000B0F1804F0BD04549884208D04449884286
:1018900005D04449884202D04349884207D1816833
:1018A000424A1140062906D0B1F5803F03D00168B5
:1018B00041F0010101603046B7E700E014E084F830
:1018C0003E0084F84400C7E784F83F0084F84500F0
:1018D000C2E784F8400084F84600BDE784F8410080
:1018E000B8E784F84200B5E7636A9862606A3B46ED
:1018F000C162606A0263216842463431606AFEF761
:10190000B0FEA8B92068C16841F4007113E0A36A71
:101910009862A06A3B46C162A06A0263216842469F
:101920003831A06AFEF79DFE10B92068C16800E05A
:1019300025E041F48061C1609EE7E36A9862E06A55
:101940003B46C162E06A0263216842463C31E06A7C
:10195000FEF787FE98B92068C16841F40061EAE7A4
:10196000FFE7236B9862206B3B46C162206B0263EA
:10197000216842464031206BFEF773FE08B101201A
:1019800053E72068C16841F48051D4E7E725000897
:10199000552600088D260008002C01400004004058
:1019A00000080040003401400040014007000100F1
:1019B00010B586B0044614216846FEF7E3FC2368A0
:1019C000164C0021164A0220A34210D1536943F459
:1019D00000135361526902F400120592420300920F
:1019E000CDE90101CDE9031069460E4812E00E4C25
:1019F000A34211D1536943F400235361526902F4A5
:101A00000022059240220092CDE90101CDE90310A8
:101A100069460648FEF774FE06B010BD002C014072
:101A20000010024000100048000400400008004878
:101A300070B5044690F83C0000260D4601280BD0F6
:101A4000012084F83C000C2A4AD007DC82B1042A29
:101A500020D0082A06D131E0022070BD102A53D0D0
:101A6000142A63D00126002084F83C00304670BD63
:101A7000206800F03FFE2068816941F00801816123
:101A80002068816921F004018161206881692A69E7
:101A9000114311E0206800F07BFE2068816941F469
:101AA000006181612068816921F480618161206821
:101AB00081692A6941EA02218161D4E7206800F046
:101AC000AFFE2068C16941F00801C1612068C169A9
:101AD00021F00401C1612068C1692A69114311E044
:101AE000206800F0E5FE2068C16941F40061C16131
:101AF0002068C16921F48061C1612068C1692A69D7
:101B000041EA0221C161AEE7206800F00BFF2068C6
:101B1000416D41F0080141652068416D21F00401EB
:101B200041652068416D2A69114311E0206800F089
:101B300031FF2068416D41F4006141652068416DCD
:101B400021F4806141652068416D2A6941EA0221E2
:101B5000416588E710B5040003D094F83D0010B14A
:101B600007E0012010BD002084F83C00204600F072
:101B700023F8022084F83D00211D206800F0CEFCEF
:101B8000012084F8480084F83E0084F83F0084F87F
:101B9000400084F8410084F8420084F8430084F84F
:101BA000440084F8450084F8460084F8470084F82F
:101BB0003D00002010BD0000F8B510210446DFF8FC
:101BC000A0E0D0F800C00020264D80220B018E013D
:101BD0002027F4451ED1D5F818C04CF4006CC5F888
:101BE00018C0AD69DFF880C005F4006500951F4D91
:101BF00005F1080E8EE8CD00E861C5E900C1284670
:101C0000FEF708FD08B1FEF7A2FC2563A5636C6230
:101C1000656322E0DFF858E0F4451FD1D5F81CC019
:101C20004CF0020CC5F81CC0ED69DFF83CC005F0B3
:101C3000020500950F4D0CF1280C05F1080E8EE8F9
:101C4000CD00E861C5E900C12846FEF7E3FC08B114
:101C5000FEF77DFC65626C62A5636C62F8BD0000F6
:101C6000002C0140001002404400024028020020E5
:101C700000040040F402002070B5044690F83C00D7
:101C8000012812D0012584F83C50022084F83D0040
:101C9000204600F0B7FE01004FF0000007D084F8A6
:101CA0003D5084F83C00012070BD022070BD2168C9
:101CB000CA6822F04002CA602168CA6822F48042E1
:101CC000CA6084F83D5084F83C00002070BDFEE7F7
:101CD0002DE9F0412DED108B0E469FEDC1DB9FED00
:101CE000C2EB9FEDC3BB9FEDC4CB9FEDC59B9FEDAA
:101CF000C68B0121C64C0D4600F05EFB6060294694
:101D0000304600F059FBA060FEF724FC0746206037
:101D1000606801F0A7F90E46054646EC1A0BBD486F
:101D20004068401C01F09EF941EC1F0B384601F061
:101D300099F953EC1F2B01F03DF853EC1A2B01F0ED
:101D400039F841EC1F0B46EC1A5B84ED04FBA068EC
:101D500001F088F953EC1A2B01F02CF89FEDAEAB93
:101D6000C4E9080153EC1A2B51EC1F0B01F0FEFAE9
:101D70000E46054646EC100B00F012FF84ED0A0BF0
:101D800046EC105B00F00CFF53EC182B51EC100BE1
:101D900001F07CF915D894ED080B53EC1D2B51EC98
:101DA000100B01F073F97DD894ED080B53EC1E2B4A
:101DB00051EC100B01F0A4FA74D884ED069B98A1A5
:101DC00007E19FEDA10B53EC102B94ED040B51ECAC
:101DD000100B01F0CBFA41EC100B00F0E1FE53ECDC
:101DE000182B51EC100B01F051F915D894ED080B9C
:101DF00053EC1D2B51EC100B01F048F952D894ED27
:101E0000080B53EC1E2B51EC100B01F079FA49D85A
:101E100084ED069B8EA1DCE09FED910B53EC102B23
:101E200094ED040B51EC100B01F0A0FA41EC100BF7
:101E300000F0B6FE53EC182B51EC100B01F026F914
:101E400033D89FED890B53EC102B94ED080B51EC1C
:101E5000100B01F01BF90ED894ED080B53EC1B2B63
:101E600051EC100B01F04CFA05D884ED069B80A1D3
:101E70008748FEF771FA9FED870B53EC102B94ED1A
:101E8000080B51EC100B01F03BFA5FD894ED080BF6
:101E900053EC1C2B51EC100B01F0F8F856D884EDE4
:101EA000069B00E052E07DA193E09FED840B53EC94
:101EB000102B94ED040B51EC100B01F057FA41EC90
:101EC000100B00F06DFE53EC182B51EC100B01F0D1
:101ED000DDF815D894ED080B53EC1C2B51EC100BCE
:101EE00001F0D4F832D894ED080B53EC1B2B51ECD5
:101EF000100B01F005FA29D884ED069B71A168E06A
:101F00009FED780B53EC102B94ED040B51EC100B60
:101F100001F02CFA41EC100B00F042FE53EC182BB0
:101F200051EC100B01F0B2F852D870A15848FEF7EE
:101F300013FA9FED748B94ED080B53EC182B51ECB6
:101F4000100B01F0A3F805D884ED06ABBDEC108BA7
:101F5000BDE8F08194ED080B53EC182B51EC100BFD
:101F600001F0CEF928D29FED690B53EC102B94EDC4
:101F7000080B51EC100B01F0C5F89FED661B53ECFC
:101F8000112B01F0F3F941EC100B53EC102B9FEDEA
:101F9000630B51EC100B00F00DFF9FED621B53EC37
:101FA000112B01F0E3F99FED611B53EC112B00F0B5
:101FB00001FFC4E90601C9E794ED080B53EC182BA7
:101FC00051EC100B01F09CF9C0D284ED069BBDE7EB
:101FD00058A1BDEC108BBDE8F0412D48FEF7BCB90F
:101FE0009A9999999999E13FCDCCCCCCCCCCDC3F56
:101FF0000AD7A3703D0AA73F333333333333EF3F60
:102000000000000000000000000000000000004090
:102010000000002090010020000000000000494066
:102020004661756C74206465746563746564206FC3
:102030006E2074686520656172746820636F6E6ECF
:10204000656374696F6E000000000000000044408A
:10205000446576697365206572726F7200000000D6
:102060000000000000003E40000000000000C03FF3
:102070005370656564207374617274206D6561735B
:102080007572656D656E743A20676F6F640000004D
:10209000E0000020000000000000EC3F5370656588
:1020A00064207374617274206D6561737572656DFF
:1020B000656E743A20626164000000000000000058
:1020C00000003440556E646572766F6C74616765AC
:1020D00020636F6E646974696F6E3A203C333530EB
:1020E000560000000000000000002440496E737597
:1020F0006C6174696F6E206D6561737572656D6575
:102100006E743A009A9999999999A93F0000000034
:1021100000005940000000000000144000000000D2
:10212000005EFA400000000000C092400000000085
:1021300000408F405754460070B586B01421684661
:10214000FEF720F92348416941F4003141614169BA
:1021500001F400310591416941F400114161416987
:1021600001F400110591416941F400214161416987
:1021700001F400210591416941F4802141614069E8
:10218000154E00F480204FF43F450590002229466B
:102190003046FEF79DFB01244FF48810CDE9004046
:1021A0000220029069464FF09040FEF7A9FA002104
:1021B0000095CDE90141039169463046FEF7A0FA4A
:1021C000002211460620FEF7EFFB0620FEF7DEFB9D
:1021D00006B070BD001002400010004810B596B067
:1021E0000024129413941C210BA81494FEF7CAF82F
:1021F0002C216846FEF7C6F82248214901601721C4
:10220000C0E9011444F62061C0E90314446184610B
:10221000FFF7A0FC08B172B6FEE71294139412A95E
:1022200018481494FFF72EF908B172B6FEE7602043
:10223000CDE90B040D940F9410940C220BA91148B6
:102240001194FFF7F5FB08B172B6FEE700944FF466
:102250000050CDE9044001940294039400030694D5
:10226000CDE907400994694606480A94FFF7C4F887
:1022700008B172B6FEE70348FFF79AFB16B010BD2F
:10228000002C01404401002010B58CB0142104A89A
:10229000FEF778F8002428480A940B9409940094D7
:1022A000019402944FF08041039401601721C0E92A
:1022B00001142249C0E903148461FFF72BF908B126
:1022C00072B6FEE71C48FFF74BFA08B172B6FEE79C
:1022D000042004905020CDE9050404A91648089470
:1022E000FFF7CAFC08B172B6FEE7099409A91248C3
:1022F0000B94FFF7C7F808B172B6FEE70120CDE9ED
:1023000000400A20CDE90240002269460A48FFF752
:1023100098F908B172B6FEE70220009001900422FD
:10232000694603940448FFF78CF9002801D072B67F
:10233000FEE70CB010BD00009001002020A10700B6
:1023400010B58AB00024079408941C2168460994AB
:10235000FEF718F81748164901601721C0E9011463
:1023600044F62061C0E903148461FFF7F3FB08B170
:1023700072B6FEE7079407A90E480994FFF782F8A2
:1023800008B172B6FEE7602000904FF47A70CDE994
:1023900001040022694607480494FFF749FB08B18D
:1023A00072B6FEE70348FFF703FB0AB010BD00005A
:1023B00000040040DC010020F0B50026721E01235D
:1023C0004D1E1DE00027BC463C4603E050F824E0CB
:1023D000641C77449C42F9D35C1C03E050F824E071
:1023E000641CF4448C42F9D3B7EB0C0401D42746A7
:1023F00000E06742974202D3220000D562425B1C94
:10240000AB42DFD301231DE00027BC463C4603E07E
:1024100050F824E0641C77449C42F9D35C1C03E030
:1024200050F824E0641CF4448C42F9D3B7EB0C045C
:1024300001D4274600E06742974202D8220000D527
:1024400062425B1CAB42DFD3012319E00027BC468C
:102450003C4603E050F824E0641C77449C42F9D3E6
:102460005C1C03E050F824E0641CF4448C42F9D373
:10247000B7EB0C0400D56442944200D11E465B1CAD
:10248000AB42E3D350F82600F0BDFEE7FEE770470D
:102490007047FEF729BA30B59FB028210FA8FDF785
:1024A00071FF142119A8FDF76DFF3C216846FDF767
:1024B00069FF0225012013900F951020149000242D
:1024C00016950004CDE917400FA8FEF79DFC08B152
:1024D00072B6FEE70F20CDE919054FF48060CDE913
:1024E0001B40002119A81D94FEF79CFB08B172B691
:1024F000FEE74FF4805000900C946846FEF786FA91
:10250000002801D072B6FEE71FB030BD0248016856
:1025100041F470010160704788ED00E02DE9F0435F
:102520000268234B234D244E244C4FF0804998429F
:1025300007D0484505D0A84203D0B04201D0A04200
:1025400003D122F070074A683A431D4FDFF874C088
:10255000DFF8748098420DD048450BD0A84209D0CE
:10256000B04207D0A04205D0B84203D0604501D0A8
:10257000404503D122F44075CA682A434D6922F0D0
:1025800080022A4302608A68C2620A6882629842B4
:1025900007D0A04205D0B84203D0604501D04045E5
:1025A00001D10969016301214161BDE8F0830000A7
:1025B000002C0140000400400008004000340140AD
:1025C00000400140004401400048014010B501F0C6
:1025D0001F030121046A99408C430462016A9A40F6
:1025E0001143016210BD10B5446A0121626A824242
:1025F00007D12177806938BB84F83E1084F84410F5
:1026000022E0A26A824208D1022222778069D8B9E8
:1026100084F83F1084F8451016E0E26A824208D13F
:1026200004222277806978B984F8401084F8461033
:102630000AE0226B824207D108222277806918B90A
:1026400084F8411084F847102046FEF7F8FF002078
:10265000207710BD10B5446A616A814201D1012022
:102660000DE0A16A814201D1022008E0E16A8142C5
:1026700001D1042003E0216B814201D108202077A1
:102680002046FEF7DDFF0020207710BD10B5446A1C
:102690000121626A824203D1217784F83E1019E059
:1026A000A26A824204D10220207784F83F1011E010
:1026B000E26A824204D10420207784F8401009E0C5
:1026C000226B824204D10820207784F8411001E077
:1026D00084F83D102046FEF7B1FF0020207710BDA2
:1026E00010B5846842EA032224F47F440A4322435B
:1026F000826010BD2DE9F043026A22F001020262FD
:10270000056A436882691C4C25F0020522400C686A
:1027100022F0030214438A68194E2A43174D194FB9
:10272000DFF864C0DFF86490A84207D0B04205D05B
:10273000B84203D0604501D0484506D122F00808D0
:10274000CA6842EA080222F00402A84207D0B04256
:1027500005D0B84203D0604501D0484505D14D6948
:1027600023F440731D438B692B43436084614968A4
:1027700041630262BDE8F0838FFFFEFF002C014041
:102780000034014000400140004401400048014045
:10279000F0B5026A22F010020262056A426883699B
:1027A000194C1B4E23400C6823F4407343EA042465
:1027B00025F020038D6843EA0513144DA84201D08B
:1027C000B04206D1CF6823F0800343EA071323F019
:1027D0004003A8420AD0B04208D00E4DA84205D00E
:1027E0000D4DA84202D00D4DA84207D14D6922F4EB
:1027F000406242EA85028D6942EA85024260846154
:10280000496881630362F0BDFF8FFFFE002C014029
:1028100000340140004001400044014000480140B4
:10282000F0B5026A22F480720262056A4368C269E6
:10283000194C1B4E22400C6822F00302144325F46D
:1028400000728D6842EA0522144DA84201D0B042C0
:1028500006D1CF6822F4006242EA072222F48062A5
:10286000A8420AD0B04208D00E4DA84205D00E4D65
:10287000A84202D00D4DA84207D14D6923F4405320
:1028800043EA05138D6943EA05134360C46149684F
:10289000C1630262F0BD00008FFFFEFF002C01400B
:1028A0000034014000400140004401400048014024
:1028B00030B5026A22F480520262046A4268C36937
:1028C000124D24F400542B400D6823F4407343EA66
:1028D00005238D6844EA05340D4DA8420BD00D4DFB
:1028E000A84208D00C4DA84205D00C4DA84202D0F9
:1028F0000B4DA84204D14D6922F4804242EA851270
:102900004260C36149680164046230BDFF8FFFFE0D
:10291000002C0140003401400040014000440140CF
:102920000048014030B5026A22F480320262046A33
:102930004268436D114D2B400D681D4324F4003354
:102940000C8943EA04430E4CA0420BD00D4CA0422C
:1029500008D00D4CA04205D00C4CA04202D00C4C2B
:10296000A04204D14C6922F4803242EA042242603F
:10297000456549688165036230BD00008FFFFEFF39
:10298000002C01400034014000400140004401405F
:102990000048014030B5026A22F480120262046AE3
:1029A0004268436D114D24F400142B400D6843EA36
:1029B00005230D8944EA05540D4DA8420BD00D4D59
:1029C000A84208D00C4DA84205D00C4DA84202D018
:1029D0000B4DA84204D14D6922F4802242EA85229F
:1029E000426043654968C165046230BDFF8FFFFEE8
:1029F000002C0140003401400040014000440140EF
:102A00000048014070B505680024AA6822F07003F0
:102A10004A681A431E4B1A400B681343AB604A685E
:102A200012F00F0F31D11211082A2ED2DFE802F076
:102A30002E2E2E2E0B2127040B69D1E902210068CE
:102A4000FFF74EFE22E00A68052A10D00268136ADA
:102A5000156A25F00105156202689569096925F076
:102A6000F00545EA01119161006803620EE0012062
:102A700070BD0A698968006800F00CF806E00A6910
:102A80008968006800F04EF800E00124204670BD1F
:102A9000F8FFFEFF10B5036A046A24F00104046223
:102AA000846924F0F00444EA021423F00A020A4381
:102AB0008461026210BD000070B5046A24F0010454
:102AC00004628469056A124EB0420ED0B0F1804FA4
:102AD0000BD0104EB04208D00F4EB04205D00F4E72
:102AE000B04202D00E4EB04203D124F0030414438E
:102AF00001E044F001041A0724F0F00444EA1262F1
:102B000025F00A0301F00A0119438261016270BDD8
:102B1000002C014000040040000800400034014047
:102B20000040014010B5036A23F01003036283697B
:102B3000046A23F4704343EA023224F0A00343EA18
:102B400001118261016210BD30B5046A24F01004E5
:102B500004628469056A24F4407444EA022222F47F
:102B600070444FF6FF7202EA03322243A02425F09C
:102B7000A00304EA011119438261016230BDFEE73E
:102B80000907090E002804DB00F1E02080F800149A
:102B9000704700F00F0000F1E02080F8141D70472E
:102BA0002DED020B019820F0004001909DED000BEF
:102BB00002B0704708B5FDF79FFEFFF76CFCFFF70A
:102BC000BBFA1E48416941F00101416140690022A0
:102BD00000F00100009011460E20FDF7E5FE0E20EA
:102BE000FDF7D4FE002211460F20FDF7DDFE0F2079
:102BF000FDF7CCFE002211461020FDF7D5FE102077
:102C0000FDF7C4FE002211461120FDF7CDFE112074
:102C1000FDF7BCFEFFF738FBFFF7E0FAFFF790FB8C
:102C20001423074A00210748FEF7CCFD1423064A67
:102C300004210448FEF7C6FDFEE700000010024034
:102C400040000020900100209000002010B591EA83
:102C5000030F48BF83F0004300F19083841A71EBA7
:102C6000030C05D2121943EB0C03001B61EB0C01A2
:102C7000DFF824E14FEA1154A4EB135C1EEA430F82
:102C800018BF9EEA445F73D023EA0E03DCF1200EE6
:102C900021EA045143F4801332D322FA0CFE10EBE4
:102CA0000E0023FA0CFE41EB0E01CCF1200E03FACC
:102CB0000EFE10EB0E0051F10001B1F5801FCCF1BA
:102CC000200E32D201EB045112FA0EF2BDE8104090
:102CD00058BF7047401C38BF5FEA420218BF7047B8
:102CE000002814BF20F0010041F100014FEA410328
:102CF00013F5001F38BF7047A1F1C04100F0FABAC8
:102D0000012A43EB0302ACF1200CDCF11F0E32BFB1
:102D10004FF0000E23FA0CF310EB030041EB0451CB
:102D2000B4EB115FD0D0A1EB045101F5801149083B
:102D30005FEA300001EB04510ED350F1000038BFC0
:102D400012FA0EFE08D1BDE81040C9E7401C38BF9A
:102D50005FEA4202CAD1C3E7BDE810404FEA41032F
:102D600013F5001F38BF7047A1F1C04100F0C2BA8F
:102D70009EEA445F08D011EA5E0FBDE8104004BF30
:102D800001F0004100207047BDE8104070B500F030
:102D900063FA00BF64FBBE3E0000E0FF491058BF6D
:102DA000C1F140415B1058BFC3F140438B42EFF388
:102DB000008070472DE9C04130B4DFF8A0C23CEA82
:102DC000111418BF3CEA131400F0EC8081EA0305EB
:102DD0001CEA111444EAD57418BF1CEA131500F05C
:102DE000C780A4EB05044FF0004545EAC12145EA40
:102DF000C32341EA505143EA525304F17F7499428C
:102E000004F500344FEAC0204FEAC22208BF9042C6
:102E100000F09C804FEA13650FF24016765D4FEA92
:102E2000134506FB05F7C7F1807706FB07F74FEA66
:102E3000D737A7FB03687642C8F58038A7FB06CED4
:102E400038BFA8F1010807FB08E64FF0000EA6FB0B
:102E5000028CE6FB03CEDCF1000CCEF1004E38BF55
:102E6000AEF1010EA6FB0C584FF000074FF0000525
:102E7000E6FB0E87A1FB08C6A0FB07CE16EB0E06ED
:102E800045F10005E1FB076515F1E04E7EBFA4F5B5
:102E900080345FEA46066D4116F1800745F1000572
:102EA0004FEA17274FEA066647EA0567A6F1DE46AE
:102EB000B6F1805F4FEA15251FD9384624F0010C82
:102EC00005EBC471BCF1FE6F01EB0C1102D8F0BC34
:102ED000BDE8008124425CBF01F5801E9EEAC47FEC
:102EE00002D4F0BCBDE80081244238D4F0BCA1F18A
:102EF000C041BDE8004100F0FDB94FEAD22242EAEC
:102F000043524FEAD323A7FB02864FEAD02040EA80
:102F1000415007FB03661EEA0E0F4FEAD12105FB65
:102F2000026658BFA6EB0056B6EB00564FEA520EAB
:102F30004EEAC37E18EB0E0E56EB530EBDD518EBC2
:102F400002085E417F1C55F10005B6E74FF480157D
:102F50004FF000074FF000064FF00008ADE7F0BC5F
:102F60004FF0000001F1C04101F00041BDE80081D7
:102F700011EA0C1F0CEA131500D00CE013EA0C1F29
:102F800000F025804FF00000F0BC81EA030101F061
:102F90000041BDE80081F0BCBDE8004181EA0301C9
:102FA00000F0A8B9F0BCBDE8004170B500F054F9DC
:102FB000097EFC3E00F007B881EA03014FF00000F3
:102FC00001F00041704781EA030100F093B9F0BCC1
:102FD000BDE800414FF0000021497047FFFDFBF9BB
:102FE000F7F5F4F2F0EEEDEBE9E8E6E4E3E1E0DE3C
:102FF000DDDBDAD8D7D5D4D3D1D0CFCDCCCBCAC8AE
:10300000C7C6C5C4C2C1C0BFBEBDBCBBBAB9B8B7D4
:10301000B6B5B4B3B2B1B0AFAEADACABAAA9A8A8C7
:10302000A7A6A5A4A3A3A2A1A09F9F9E9D9C9C9B95
:103030009A99999897979695959493939291919040
:103040008F8F8E8E8D8C8C8B8B8A898988888787D1
:103050008685858484838382828181800000FF0746
:103060000000F87FB0FA80F310FA03F10AD0C3F140
:103070001D0303F580634FEA41504FEA035202EB10
:10308000D12170474FF000007047000051EA030C57
:1030900017D41CF5801F58BFBCF5801F00F10680B7
:1030A000994218BF704708BF9042704707D711F583
:1030B000801F58BF13F5801F19D499427047894269
:1030C00070471CF5801F08D5BCF5801FF7D58B42D3
:1030D00018BF704708BF824270474FF4001C1CEBBA
:1030E000410F38BF1CEB430F01D28B42704770B5C4
:1030F00000F0B2F8922449004FF000514FF0805395
:10310000FFF74CBEDFF848C170B51CEA111E1EBFA8
:103110001CEA13159EEA0C0F95EA0C0F00F06F8065
:1031200081EA030423EA4C134EEAD47E21EA4C11CF
:1031300041F4801143F48013AE44A1FB024CA0FB88
:103140000365AEF17F7E361955EB0C05A1FB034CF0
:103150004CF10003A0FB021C16EB0C06654153F179
:103160000003094218BF46F0010613F4007F0BD19B
:103170004FEA03314FEA0530340341EA155140EA82
:1031800016506FF003020AE04FEAC3214FEAC52050
:10319000F40241EA555140EA56506FF0020202EB48
:1031A0002E4201EB025585EACE710AD05FEA440C4B
:1031B00018BF24F0004450F1000041F1000120EA62
:1031C000D47040F2FE7C624500D270BDA84214BFAC
:1031D0004FF080444FF04044002E08BF0024BEF161
:1031E000806FA8BFA1F1C041BDE8704080F282802D
:1031F0004FF0000001F1C04101F0004170479EEA2C
:103200000C0F0CEA131518BF95EA0C0F06D04FF0FF
:10321000000081EA030E0EF0004170BD00F01CF8C2
:103220008900013E00F007B800F009B84FEA430CEE
:103230005FEA5C5C08D081EA030100F05BB84FEA0A
:10324000410C5FEA5C5CF6D14FF000000149704729
:103250000000FF070000F87F0EF1020E2EF0030EB3
:103260005EF8046B364205D4012A43EB030515F5DD
:10327000001F12D8012841EB010C1CF5001F0CD8CF
:103280000ED14FEAD17C15F5001F0CEB4C0C0CF164
:10329000020C08BF4CEBD37C04E04FF0080C01E0BB
:1032A0004FEAD37C0CEB4C0526FA05F606F0070630
:1032B000B6F1040C06D20EEB860CBDE870404CF063
:1032C000010C6047DFE80CF0090B02024FF00041EF
:1032D0004FF00000A1F5002170BD194610460128ED
:1032E00051EB010418BFD4F5001484BF002001F095
:1032F000004170BD0808A0F500114FEA3101704788
:1033000053EA010C17D41CF5801F58BFBCF5801F71
:1033100000F106808B4218BF704708BF8242704799
:1033200007D713F5801F58BF11F5801F19D48B42A2
:1033300070479B4270471CF5801F08D5BCF5801F65
:10334000F7D5994218BF704708BF904270474FF4B5
:10335000001C1CEB430F38BF1CEB410F01D29942FC
:1033600070470FB40CBC03BCFFF7C1BE10B591EAA7
:10337000030F48BF83F000433FF570AC841A71EB34
:10338000030C07D212198CF0004C43EB0C03001B0A
:1033900061EB0C01DFF8A4E14FEA1154A4EB135CDC
:1033A0001EEA430F18BF9EEA445F00F0B08023EA94
:1033B0006E03524221EA0451C3EB6E0338BF5B1E19
:1033C000DCF1200E25D322FA0CFE10EB0E0043FA9E
:1033D0000CFE41EB0E01CCF1200E03FA0EFE10EBB9
:1033E0000E0051F10001CCF1200E29D412FA0EF298
:1033F00001EB0451BDE8104058BF7047401C1CBF92
:10340000B2F1004F704700280CBF491C20F00100AA
:10341000704712EB020E43EB030218BF4FF0010E90
:103420004EEA4202ACF1200CDCF11E0E54D943FAF4
:103430000CFE10EB0E0051F1FF31CCF11E0ED5D574
:103440000EF1010E12FA0EFE404141EB010101EBBB
:10345000445C5FEA5C5C10D910EBDE7001EB045158
:1034600038BFBEF1004FBDE8104018BF70470028BC
:103470000CBF491C20F00100704730D24FEAD42C19
:1034800011F5001124F400641BD0B1FA81F20B3A5B
:10349000A41AA41ED2F12003914030FA03F3194379
:1034A000904001EBCC71002C01EB0451BDE81040C1
:1034B000A8BF704701F1C0414FF0000001F000418A
:1034C0007047B0FA80F310FA03F100D110BDE41A8E
:1034D000173C4805C90AE4E701EB045110BD491047
:1034E00001EB0451BDE810404FEA300002E04FF01C
:1034F000000170474A0008BF0042F8D0B2F5001F33
:1035000028BF704701F000414FF0000070479EEA6D
:10351000445F07D011EA5E0FBDE8104004BF0021F0
:1035200000207047BDE8104070B5FFF795FE00BF62
:1035300040DFF63E83F00041104670470000E0FF98
:103540004FF04070E1EE100A7047020304050607D1
:1035500008090A0B0C0D0E0F1010010203040506DA
:103560000708090A0B0C0D0E0F10000000000000E8
:103570000000010203040607080900000000010220
:1035800003040000A43500080000002040000000F3
:10359000C4010008E435000840000020580900007C
:1035A000E001000800000000000000000000000032
:1035B000000000000000000000000000000000000B
:1035C00000000000000000000000000000000000FB
:1035D00000000000010000001000000000000000DA
:0435E00000127A005B
:040000050800018965
:00000001FF
